{
  "address": "0x2376df1c0C7Ea045905FFA9a013a51FA6aE6E169",
  "abi": [
    {
      "inputs": [
        {
          "internalType": "uint16",
          "name": "_requestConfirmation",
          "type": "uint16"
        },
        {
          "internalType": "uint256",
          "name": "_gameDuration",
          "type": "uint256"
        },
        {
          "internalType": "uint256",
          "name": "_s_subscriptionId",
          "type": "uint256"
        },
        {
          "internalType": "uint256",
          "name": "_participationFee",
          "type": "uint256"
        },
        {
          "internalType": "bytes32",
          "name": "_keyHash",
          "type": "bytes32"
        },
        {
          "internalType": "address",
          "name": "_coordinatorId",
          "type": "address"
        }
      ],
      "stateMutability": "nonpayable",
      "type": "constructor"
    },
    {
      "inputs": [
        {
          "internalType": "uint256",
          "name": "currentGameIndex",
          "type": "uint256"
        }
      ],
      "name": "GameInProgress",
      "type": "error"
    },
    {
      "inputs": [
        {
          "internalType": "uint256",
          "name": "currentGameIndex",
          "type": "uint256"
        }
      ],
      "name": "GameNonExpirable",
      "type": "error"
    },
    {
      "inputs": [],
      "name": "InsufficientAmountToWithdraw",
      "type": "error"
    },
    {
      "inputs": [],
      "name": "InsufficientParticipationFee",
      "type": "error"
    },
    {
      "inputs": [
        {
          "internalType": "uint256",
          "name": "currentGameIndex",
          "type": "uint256"
        }
      ],
      "name": "NotEnoughGamesPlayedYetToWithdrawTVL",
      "type": "error"
    },
    {
      "inputs": [
        {
          "internalType": "address",
          "name": "have",
          "type": "address"
        },
        {
          "internalType": "address",
          "name": "want",
          "type": "address"
        }
      ],
      "name": "OnlyCoordinatorCanFulfill",
      "type": "error"
    },
    {
      "inputs": [
        {
          "internalType": "address",
          "name": "have",
          "type": "address"
        },
        {
          "internalType": "address",
          "name": "owner",
          "type": "address"
        },
        {
          "internalType": "address",
          "name": "coordinator",
          "type": "address"
        }
      ],
      "name": "OnlyOwnerOrCoordinator",
      "type": "error"
    },
    {
      "inputs": [
        {
          "internalType": "address",
          "name": "user",
          "type": "address"
        }
      ],
      "name": "PlayerExists",
      "type": "error"
    },
    {
      "inputs": [
        {
          "internalType": "enum TreasureHunt.Directions",
          "name": "direction",
          "type": "uint8"
        },
        {
          "internalType": "uint8",
          "name": "currentPosition",
          "type": "uint8"
        }
      ],
      "name": "PositionOutOfBounds",
      "type": "error"
    },
    {
      "inputs": [
        {
          "internalType": "uint256",
          "name": "requestId",
          "type": "uint256"
        }
      ],
      "name": "RequestNotFound",
      "type": "error"
    },
    {
      "inputs": [],
      "name": "RestrictedToDeployer",
      "type": "error"
    },
    {
      "inputs": [],
      "name": "ValueCannotExceedHundred",
      "type": "error"
    },
    {
      "inputs": [],
      "name": "ZeroAddress",
      "type": "error"
    },
    {
      "anonymous": false,
      "inputs": [
        {
          "indexed": false,
          "internalType": "address",
          "name": "vrfCoordinator",
          "type": "address"
        }
      ],
      "name": "CoordinatorSet",
      "type": "event"
    },
    {
      "anonymous": false,
      "inputs": [
        {
          "indexed": true,
          "internalType": "uint256",
          "name": "currentGameIndex",
          "type": "uint256"
        },
        {
          "indexed": false,
          "internalType": "uint256",
          "name": "initialTVL",
          "type": "uint256"
        },
        {
          "indexed": false,
          "internalType": "uint8",
          "name": "initialTreasurePosition",
          "type": "uint8"
        }
      ],
      "name": "GameBegins",
      "type": "event"
    },
    {
      "anonymous": false,
      "inputs": [
        {
          "indexed": true,
          "internalType": "uint256",
          "name": "currentGameIndex",
          "type": "uint256"
        }
      ],
      "name": "GameOver",
      "type": "event"
    },
    {
      "anonymous": false,
      "inputs": [
        {
          "indexed": true,
          "internalType": "address",
          "name": "player",
          "type": "address"
        },
        {
          "indexed": false,
          "internalType": "uint256",
          "name": "currentGameIndex",
          "type": "uint256"
        }
      ],
      "name": "NewPlayerAdded",
      "type": "event"
    },
    {
      "anonymous": false,
      "inputs": [
        {
          "indexed": true,
          "internalType": "address",
          "name": "from",
          "type": "address"
        },
        {
          "indexed": true,
          "internalType": "address",
          "name": "to",
          "type": "address"
        }
      ],
      "name": "OwnershipTransferRequested",
      "type": "event"
    },
    {
      "anonymous": false,
      "inputs": [
        {
          "indexed": true,
          "internalType": "address",
          "name": "from",
          "type": "address"
        },
        {
          "indexed": true,
          "internalType": "address",
          "name": "to",
          "type": "address"
        }
      ],
      "name": "OwnershipTransferred",
      "type": "event"
    },
    {
      "anonymous": false,
      "inputs": [
        {
          "indexed": false,
          "internalType": "address",
          "name": "player",
          "type": "address"
        },
        {
          "indexed": false,
          "internalType": "uint256",
          "name": "currentGameIndex",
          "type": "uint256"
        },
        {
          "indexed": false,
          "internalType": "uint8",
          "name": "newPosition",
          "type": "uint8"
        }
      ],
      "name": "PlayerRelocated",
      "type": "event"
    },
    {
      "anonymous": false,
      "inputs": [
        {
          "indexed": true,
          "internalType": "address",
          "name": "sender",
          "type": "address"
        },
        {
          "indexed": false,
          "internalType": "uint256",
          "name": "amount",
          "type": "uint256"
        }
      ],
      "name": "Received",
      "type": "event"
    },
    {
      "anonymous": false,
      "inputs": [
        {
          "indexed": false,
          "internalType": "uint256",
          "name": "requestId",
          "type": "uint256"
        },
        {
          "indexed": false,
          "internalType": "uint256[]",
          "name": "randomWords",
          "type": "uint256[]"
        }
      ],
      "name": "RequestFulfilled",
      "type": "event"
    },
    {
      "anonymous": false,
      "inputs": [
        {
          "indexed": false,
          "internalType": "uint256",
          "name": "requestId",
          "type": "uint256"
        }
      ],
      "name": "RequestSent",
      "type": "event"
    },
    {
      "anonymous": false,
      "inputs": [
        {
          "indexed": true,
          "internalType": "uint8",
          "name": "newPosition",
          "type": "uint8"
        },
        {
          "indexed": false,
          "internalType": "uint256",
          "name": "currentGameIndex",
          "type": "uint256"
        }
      ],
      "name": "TreasureRelocated",
      "type": "event"
    },
    {
      "anonymous": false,
      "inputs": [
        {
          "indexed": true,
          "internalType": "address",
          "name": "winner",
          "type": "address"
        },
        {
          "indexed": false,
          "internalType": "uint256",
          "name": "prize",
          "type": "uint256"
        },
        {
          "indexed": false,
          "internalType": "uint256",
          "name": "currentGameIndex",
          "type": "uint256"
        }
      ],
      "name": "Winner",
      "type": "event"
    },
    {
      "anonymous": false,
      "inputs": [
        {
          "indexed": true,
          "internalType": "address",
          "name": "user",
          "type": "address"
        }
      ],
      "name": "WithdrawFunds",
      "type": "event"
    },
    {
      "inputs": [],
      "name": "DEPLOYER",
      "outputs": [
        {
          "internalType": "address",
          "name": "",
          "type": "address"
        }
      ],
      "stateMutability": "view",
      "type": "function"
    },
    {
      "inputs": [],
      "name": "GAME_DURATION",
      "outputs": [
        {
          "internalType": "uint256",
          "name": "",
          "type": "uint256"
        }
      ],
      "stateMutability": "view",
      "type": "function"
    },
    {
      "inputs": [],
      "name": "GRID_SIZE",
      "outputs": [
        {
          "internalType": "uint8",
          "name": "",
          "type": "uint8"
        }
      ],
      "stateMutability": "view",
      "type": "function"
    },
    {
      "inputs": [],
      "name": "PARTICIPATION_FEE",
      "outputs": [
        {
          "internalType": "uint256",
          "name": "",
          "type": "uint256"
        }
      ],
      "stateMutability": "view",
      "type": "function"
    },
    {
      "inputs": [],
      "name": "acceptOwnership",
      "outputs": [],
      "stateMutability": "nonpayable",
      "type": "function"
    },
    {
      "inputs": [],
      "name": "currentGameIndex",
      "outputs": [
        {
          "internalType": "uint256",
          "name": "",
          "type": "uint256"
        }
      ],
      "stateMutability": "view",
      "type": "function"
    },
    {
      "inputs": [],
      "name": "endCurrentGame",
      "outputs": [],
      "stateMutability": "nonpayable",
      "type": "function"
    },
    {
      "inputs": [
        {
          "internalType": "uint256",
          "name": "gameIndex",
          "type": "uint256"
        }
      ],
      "name": "games",
      "outputs": [
        {
          "internalType": "uint8",
          "name": "treasurePosition",
          "type": "uint8"
        },
        {
          "internalType": "bool",
          "name": "moveTreasure",
          "type": "bool"
        },
        {
          "internalType": "uint40",
          "name": "startTime",
          "type": "uint40"
        },
        {
          "internalType": "address",
          "name": "winner",
          "type": "address"
        },
        {
          "internalType": "uint256",
          "name": "totalValueLocked",
          "type": "uint256"
        },
        {
          "internalType": "uint256",
          "name": "playerCount",
          "type": "uint256"
        }
      ],
      "stateMutability": "view",
      "type": "function"
    },
    {
      "inputs": [],
      "name": "keyHash",
      "outputs": [
        {
          "internalType": "bytes32",
          "name": "",
          "type": "bytes32"
        }
      ],
      "stateMutability": "view",
      "type": "function"
    },
    {
      "inputs": [
        {
          "internalType": "enum TreasureHunt.Directions",
          "name": "direction",
          "type": "uint8"
        }
      ],
      "name": "makeMove",
      "outputs": [],
      "stateMutability": "payable",
      "type": "function"
    },
    {
      "inputs": [],
      "name": "owner",
      "outputs": [
        {
          "internalType": "address",
          "name": "",
          "type": "address"
        }
      ],
      "stateMutability": "view",
      "type": "function"
    },
    {
      "inputs": [],
      "name": "participate",
      "outputs": [],
      "stateMutability": "payable",
      "type": "function"
    },
    {
      "inputs": [
        {
          "internalType": "uint256",
          "name": "gameIndex",
          "type": "uint256"
        },
        {
          "internalType": "address",
          "name": "userAddress",
          "type": "address"
        }
      ],
      "name": "players",
      "outputs": [
        {
          "internalType": "uint8",
          "name": "position",
          "type": "uint8"
        },
        {
          "internalType": "bool",
          "name": "isActive",
          "type": "bool"
        }
      ],
      "stateMutability": "view",
      "type": "function"
    },
    {
      "inputs": [
        {
          "internalType": "uint256",
          "name": "requestId",
          "type": "uint256"
        },
        {
          "internalType": "uint256[]",
          "name": "randomWords",
          "type": "uint256[]"
        }
      ],
      "name": "rawFulfillRandomWords",
      "outputs": [],
      "stateMutability": "nonpayable",
      "type": "function"
    },
    {
      "inputs": [],
      "name": "request",
      "outputs": [
        {
          "internalType": "address",
          "name": "player",
          "type": "address"
        },
        {
          "internalType": "uint8",
          "name": "newPosition",
          "type": "uint8"
        },
        {
          "internalType": "enum TreasureHunt.TreasureMovement",
          "name": "condition",
          "type": "uint8"
        },
        {
          "internalType": "bool",
          "name": "newGame",
          "type": "bool"
        },
        {
          "internalType": "uint256",
          "name": "requestId",
          "type": "uint256"
        }
      ],
      "stateMutability": "view",
      "type": "function"
    },
    {
      "inputs": [],
      "name": "s_vrfCoordinator",
      "outputs": [
        {
          "internalType": "contract IVRFCoordinatorV2Plus",
          "name": "",
          "type": "address"
        }
      ],
      "stateMutability": "view",
      "type": "function"
    },
    {
      "inputs": [
        {
          "internalType": "address",
          "name": "_vrfCoordinator",
          "type": "address"
        }
      ],
      "name": "setCoordinator",
      "outputs": [],
      "stateMutability": "nonpayable",
      "type": "function"
    },
    {
      "inputs": [
        {
          "internalType": "address",
          "name": "to",
          "type": "address"
        }
      ],
      "name": "transferOwnership",
      "outputs": [],
      "stateMutability": "nonpayable",
      "type": "function"
    },
    {
      "inputs": [
        {
          "internalType": "uint256",
          "name": "gameIndex",
          "type": "uint256"
        }
      ],
      "name": "withdrawFunds",
      "outputs": [],
      "stateMutability": "nonpayable",
      "type": "function"
    }
  ],
  "transactionHash": "0xb40b8ea33f1894957b59e383df511ef68bc677a548a1b4b51ad980cef35925a3",
  "args": [
    3,
    86400,
    "64746452690481906522574034740770945330467998183793674977142993865018905336125",
    "100000000000000000",
    "0x787d74caea10b2b357790d5b5247c2f63d1d91572a9846f780606e4d953677ae",
    "0x9DdfaCa8183c41ad55329BdeeD9F6A8d53168B1B"
  ],
  "numDeployments": 2,
  "solcInputHash": "261aae10e5d99fb831965d366347de29",
  "bytecode": "0x6101006040523480156200001257600080fd5b506040516200240838038062002408833981016040819052620000359162000388565b8033806000816200008d5760405162461bcd60e51b815260206004820152601860248201527f43616e6e6f7420736574206f776e657220746f207a65726f000000000000000060448201526064015b60405180910390fd5b600080546001600160a01b0319166001600160a01b0384811691909117909155811615620000c057620000c0816200022c565b5050506001600160a01b038116620000eb5760405163d92e233d60e01b815260040160405180910390fd5b600280546001600160a01b03199081166001600160a01b0393841617909155600586905560078490556004805490911691831691909117905561ffff861660805260a083905260c08590523360e052600680549060006200014c83620003ff565b90915550506006546000908152600860205260408120805466ffffffffff00001916620100004264ffffffffff160217905562000188620002d7565b600680546000908152600860209081526040808320805460ff191660ff871690811790915593548084529281902060010154815190815291820193909352929350917fcdadcf84feea528bdc87fc2d643d6f5bd41e807ca9322b57eb988712e48d922e910160405180910390a26040805160208101909152600081526200020f9062000316565b6003906200021e9082620004ce565b5050505050505050620005bd565b336001600160a01b03821603620002865760405162461bcd60e51b815260206004820152601760248201527f43616e6e6f74207472616e7366657220746f2073656c66000000000000000000604482015260640162000084565b600180546001600160a01b0319166001600160a01b0383811691821790925560008054604051929316917fed8889f560326eb138920d842192f0eb3dd22b4f139c87a2c57538e05bae12789190a350565b604080514260208083019190915243828401528251808303840181526060909201909252805191012060009062000311906064906200059a565b905090565b60607f92fd13387c7fe7befbc38d303d6468778fb9731bc4583f17d92989c6fcfdeaaa826040516024016200035091511515815260200190565b60408051601f198184030181529190526020810180516001600160e01b03166001600160e01b03199093169290921790915292915050565b60008060008060008060c08789031215620003a257600080fd5b865161ffff81168114620003b557600080fd5b6020880151604089015160608a015160808b015160a08c0151949a50929850909650945092506001600160a01b0381168114620003f157600080fd5b809150509295509295509295565b6000600182016200042057634e487b7160e01b600052601160045260246000fd5b5060010190565b634e487b7160e01b600052604160045260246000fd5b600181811c908216806200045257607f821691505b6020821081036200047357634e487b7160e01b600052602260045260246000fd5b50919050565b601f821115620004c9576000816000526020600020601f850160051c81016020861015620004a45750805b601f850160051c820191505b81811015620004c557828155600101620004b0565b5050505b505050565b81516001600160401b03811115620004ea57620004ea62000427565b6200050281620004fb84546200043d565b8462000479565b602080601f8311600181146200053a5760008415620005215750858301515b600019600386901b1c1916600185901b178555620004c5565b600085815260208120601f198616915b828110156200056b578886015182559484019460019091019084016200054a565b50858210156200058a5787850151600019600388901b60f8161c191681555b5050505050600190811b01905550565b600082620005b857634e487b7160e01b600052601260045260246000fd5b500690565b60805160a05160c05160e051611de762000621600039600061043801526000818161046c0152610bfb0152600081816102ad015281816105b1015281816105eb01528181610c5d01528181610cf70152610df3015260006112ca0152611de76000f3fe6080604052600436106101445760003560e01c80638da5cb5b116100c0578063c1b8411a11610074578063d11711a211610059578063d11711a21461048e578063e5048a1d14610496578063f2fde38b146104ac57600080fd5b8063c1b8411a14610426578063c31b29ce1461045a57600080fd5b80639eccacf6116100a55780639eccacf614610394578063b033777f146103b4578063c0f80921146103c957600080fd5b80638da5cb5b146103425780638ea981171461037457600080fd5b806349943a1311610117578063650271d2116100fc578063650271d2146102f357806379ba5097146103065780637fc4eda81461031b57600080fd5b806349943a131461029b57806361728f39146102dd57600080fd5b8063117a5b9014610149578063155dd5ee146102015780631fe543e314610223578063338cdca114610243575b600080fd5b34801561015557600080fd5b506101b6610164366004611951565b60086020526000908152604090208054600182015460029092015460ff8083169361010084049091169262010000810464ffffffffff16926701000000000000009091046001600160a01b0316919086565b6040805160ff9097168752941515602087015264ffffffffff909316938501939093526001600160a01b03166060840152608083019190915260a082015260c0015b60405180910390f35b34801561020d57600080fd5b5061022161021c366004611951565b6104cc565b005b34801561022f57600080fd5b5061022161023e36600461196a565b61066b565b34801561024f57600080fd5b50600a54600b5461028a916001600160a01b0381169160ff600160a01b8304811692600160a81b8104821692600160b01b9091049091169085565b6040516101f89594939291906119ff565b3480156102a757600080fd5b506102cf7f000000000000000000000000000000000000000000000000000000000000000081565b6040519081526020016101f8565b3480156102e957600080fd5b506102cf60075481565b610221610301366004611a44565b6106d4565b34801561031257600080fd5b50610221610990565b34801561032757600080fd5b50610330606481565b60405160ff90911681526020016101f8565b34801561034e57600080fd5b506000546001600160a01b03165b6040516001600160a01b0390911681526020016101f8565b34801561038057600080fd5b5061022161038f366004611a88565b610a4e565b3480156103a057600080fd5b5060025461035c906001600160a01b031681565b3480156103c057600080fd5b50610221610b7f565b3480156103d557600080fd5b5061040d6103e4366004611aa3565b600960209081526000928352604080842090915290825290205460ff8082169161010090041682565b6040805160ff90931683529015156020830152016101f8565b34801561043257600080fd5b5061035c7f000000000000000000000000000000000000000000000000000000000000000081565b34801561046657600080fd5b506102cf7f000000000000000000000000000000000000000000000000000000000000000081565b610221610cf5565b3480156104a257600080fd5b506102cf60065481565b3480156104b857600080fd5b506102216104c7366004611a88565b610e97565b806006548110610517576006546040517f366043d100000000000000000000000000000000000000000000000000000000815260040161050e91815260200190565b60405180910390fd5b600082815260096020908152604080832033845290915290208054610100900460ff16610570576040517ff87c9d3d00000000000000000000000000000000000000000000000000000000815260040160405180910390fd5b805461ff00191681556000838152600860205260408120600201805490919061059890611ae5565b90915550600083815260086020526040812060010180547f000000000000000000000000000000000000000000000000000000000000000092906105dd908490611afc565b9091555050604051339081907f000000000000000000000000000000000000000000000000000000000000000080156108fc02916000818181858888f19350505050158015610630573d6000803e3d6000fd5b506040516001600160a01b038216907f690811994723cec9c6da682680f6c18f0a17ea88a1c30156f4b1f3d61106359990600090a250505050565b6002546001600160a01b031633146106c4576002546040517f1cf993f40000000000000000000000000000000000000000000000000000000081523360048201526001600160a01b03909116602482015260440161050e565b6106cf838383610eab565b505050565b600654600081815260096020908152604080832033845282529182902082518084019093525460ff808216845261010090910416151590820181905261075c5760405162461bcd60e51b815260206004820152600f60248201527f494e41435449564520706c617965720000000000000000000000000000000000604482015260640161050e565b600082815260086020908152604091829020825160c081018452815460ff80821683526101008204161580159483019490945262010000810464ffffffffff16948201949094526701000000000000009093046001600160a01b03166060840152600181015460808401526002015460a083015261081c5760405162461bcd60e51b815260206004820152601760248201527f547265617375726520697320696e206d6f76656d656e74000000000000000000604482015260640161050e565b8151815160ff8082169083160361083c576108378533610fdd565b610988565b600061084883886110f6565b905061085381611230565b156108d957600a80546001919060ff60a81b1916600160a81b835b0217905550600a80547fffffffffffffffffffffff00000000000000000000000000000000000000000016337fffffffffffffffffffffff00ffffffffffffffffffffffffffffffffffffffff1617600160a01b60ff8416021790556108d38661128d565b50610986565b6108e4600582611b2b565b60ff1660000361090857600a80546000919060ff60a81b1916600160a81b8361086e565b60008681526009602090815260408083203380855290835292819020805460ff191660ff861690811790915581519384529183018990528201527f8cfc39b735085d0c9e8df3760de5513e3a16d0fb39f1ca26d8fcb40c2d3821489060600160405180910390a18160ff168160ff1603610986576109868633610fdd565b505b505050505050565b6001546001600160a01b031633146109ea5760405162461bcd60e51b815260206004820152601660248201527f4d7573742062652070726f706f736564206f776e657200000000000000000000604482015260640161050e565b600080543373ffffffffffffffffffffffffffffffffffffffff19808316821784556001805490911690556040516001600160a01b0390921692909183917f8be0079c531659141344cd1fd0a4f28419497f9722a3daafe3b4186f6b6457e091a350565b6000546001600160a01b03163314801590610a7457506002546001600160a01b03163314155b15610ade5733610a8c6000546001600160a01b031690565b6002546040517f061db9c10000000000000000000000000000000000000000000000000000000081526001600160a01b039384166004820152918316602483015291909116604482015260640161050e565b6001600160a01b038116610b1e576040517fd92e233d00000000000000000000000000000000000000000000000000000000815260040160405180910390fd5b6002805473ffffffffffffffffffffffffffffffffffffffff19166001600160a01b0383169081179091556040519081527fd1a6a14209a385a964d036e404cb5cfb71f4000cdb03c9366292430787261be69060200160405180910390a150565b600654600081815260086020908152604091829020825160c081018452815460ff808216835261010082041615159382019390935262010000830464ffffffffff169381018490526701000000000000009092046001600160a01b03166060830152600181015460808301526002015460a082015290610c20907f000000000000000000000000000000000000000000000000000000000000000090611b4d565b4211610c5b576040517fcfd1c77a0000000000000000000000000000000000000000000000000000000081526004810183905260240161050e565b7f00000000000000000000000000000000000000000000000000000000000000008160a00151610c8b9190611b60565b8160800151610c9a9190611afc565b60086000610ca9856001611b4d565b8152602081019190915260400160002060010155610cc682611447565b60405182907f3496ed15a97ad1d154265bf94e0068b3b45bed65b26cb72ecc4e1b8a44d9b3d790600090a25050565b7f00000000000000000000000000000000000000000000000000000000000000003414610d4e576040517f5030204100000000000000000000000000000000000000000000000000000000815260040160405180910390fd5b600654600090815260096020908152604080832033808552925290912054610100900460ff1615610db6576040517f9ff5a6220000000000000000000000000000000000000000000000000000000081526001600160a01b038216600482015260240161050e565b6006546000908152600860205260408120600201805491610dd683611b77565b9091555050600654600090815260086020526040812060010180547f00000000000000000000000000000000000000000000000000000000000000009290610e1f908490611b4d565b90915550506006805460009081526009602090815260408083206001600160a01b038616808552925291829020805461ff001916610100179055915490517f5b41471b9d6c7fea5e64d571838f0e59a76610c2f2c1332302c0df0ca89c78cb91610e8c9190815260200190565b60405180910390a250565b610e9f6114ab565b610ea881611507565b50565b6006546000818152600860205260409020805461ff0019169055600b548414610f03576040517f4ec726c70000000000000000000000000000000000000000000000000000000081526004810185905260240161050e565b600a54600160b01b900460ff1615610f3c57610f3783836000818110610f2b57610f2b611b90565b905060200201356115bd565b610f9c565b610f5e83836000818110610f5257610f52611b90565b90506020020135611649565b600081815260086020526040902054600a5460ff918216600160a01b90910490911603610f9c57600a54610f9c9082906001600160a01b0316610fdd565b7ffe2e2d779dba245964d4e3ef9b994be63856fd568bf7d3ca9e224755cb1bd54d848484604051610fcf93929190611ba6565b60405180910390a150505050565b600082815260086020526040812080547fffffffffff0000000000000000000000000000000000000000ffffffffffffff166701000000000000006001600160a01b0385160217815560010154600a90611038906009611b60565b6110429190611bff565b6040519091506001600160a01b0383169082156108fc029083906000818181858888f1935050505015801561107b573d6000803e3d6000fd5b50476008600061108c866001611b4d565b815260200190815260200160002060010181905550816001600160a01b03167f83180aa4ac63459a0857ee4be800e29aa03c2426bdb949e15826b88ef0c668a282856040516110e5929190918252602082015260400190565b60405180910390a26106cf83611447565b600080611104600a85611c13565b90506000611113600a86611b2b565b90506000846003811115611129576111296119e9565b036111515760ff81161561114757611142600186611c35565b61114a565b60645b92506111e7565b6002846003811115611165576111656119e9565b0361117e5760ff82161561114757611142600a86611c35565b6001846003811115611192576111926119e9565b036111ad578060ff1660091461114757611142856001611c4e565b60038460038111156111c1576111c16119e9565b036111e7578160ff166009146111e1576111dc85600a611c4e565b6111e4565b60645b92505b8260ff166064036112285783856040517f351ef1d200000000000000000000000000000000000000000000000000000000815260040161050e929190611c67565b505092915050565b6000606460ff83161061126f576040517fcfe8436600000000000000000000000000000000000000000000000000000000815260040160405180910390fd5b50600160ff919091161b6c020208828828208a20a08a28ac16151590565b6000818152600860209081526040808320805461ff001916610100179055600254815160c08101835260075481526005549381019390935261ffff7f00000000000000000000000000000000000000000000000000000000000000001691830191909152620186a0606083015260016080830152600380546001600160a01b0390921692639b1c385e92909160a083019161132790611c8d565b80601f016020809104026020016040519081016040528092919081815260200182805461135390611c8d565b80156113a05780601f10611375576101008083540402835291602001916113a0565b820191906000526020600020905b81548152906001019060200180831161138357829003601f168201915b50505050508152506040518263ffffffff1660e01b81526004016113c49190611cc7565b6020604051808303816000875af11580156113e3573d6000803e3d6000fd5b505050506040513d601f19601f820116820180604052508101906114079190611d65565b600b8190556040518181529091507f0cd21a41891ff04ecd9a8754bec97e2fb85d2a4e7694329d4dc364c796f23d069060200160405180910390a1919050565b6006805490600061145783611b77565b90915550506006546000908152600860205260409020805464ffffffffff4216620100000266ffffffffff000019909116179055600a805460ff60b01b1916600160b01b1790556114a78161128d565b5050565b6000546001600160a01b031633146115055760405162461bcd60e51b815260206004820152601660248201527f4f6e6c792063616c6c61626c65206279206f776e657200000000000000000000604482015260640161050e565b565b336001600160a01b0382160361155f5760405162461bcd60e51b815260206004820152601760248201527f43616e6e6f74207472616e7366657220746f2073656c66000000000000000000604482015260640161050e565b6001805473ffffffffffffffffffffffffffffffffffffffff19166001600160a01b0383811691821790925560008054604051929316917fed8889f560326eb138920d842192f0eb3dd22b4f139c87a2c57538e05bae12789190a350565b600a805460ff60b01b1916905560006115d7606483611d7e565b600680546000908152600860209081526040808320805460ff191660ff871690811790915593548084529281902060010154815190815291820193909352929350917fcdadcf84feea528bdc87fc2d643d6f5bd41e807ca9322b57eb988712e48d922e91015b60405180910390a25050565b6000600a54600160a81b900460ff166001811115611669576116696119e9565b0361167757610ea8816116a5565b6001600a54600160a81b900460ff166001811115611697576116976119e9565b03610ea857610ea8816118cc565b60065460009081526008602052604090205460ff166116c2611933565b6000806116d0600a85611b2b565b905060006116df600a86611c13565b905060ff821615611723576116f5600186611c35565b848461170081611d92565b955060ff166004811061171557611715611b90565b60ff90921660209290920201525b60ff81161561176557611737600a86611c35565b848461174281611d92565b955060ff166004811061175757611757611b90565b60ff90921660209290920201525b8160ff166009146117a95761177b856001611c4e565b848461178681611d92565b955060ff166004811061179b5761179b611b90565b60ff90921660209290920201525b8060ff166009146117ed576117bf85600a611c4e565b84846117ca81611d92565b955060ff16600481106117df576117df611b90565b60ff90921660209290920201525b60008360ff16116118405760405162461bcd60e51b815260206004820152600e60248201527f4e6f2076616c6964206d6f766573000000000000000000000000000000000000604482015260640161050e565b60008461185060ff861689611d7e565b6004811061186057611860611b90565b6020908102919091015160068054600090815260088452604090819020805460ff191660ff851690811790915591549051908152919350917f32fbc39880739ae665a66c21478c42d782683e41f36566147712500128a30f94910160405180910390a250505050505050565b60006118d9606483611d7e565b60068054600090815260086020908152604091829020805460ff191660ff86169081179091559254915191825292935090917f32fbc39880739ae665a66c21478c42d782683e41f36566147712500128a30f94910161163d565b60405180608001604052806004906020820280368337509192915050565b60006020828403121561196357600080fd5b5035919050565b60008060006040848603121561197f57600080fd5b83359250602084013567ffffffffffffffff8082111561199e57600080fd5b818601915086601f8301126119b257600080fd5b8135818111156119c157600080fd5b8760208260051b85010111156119d657600080fd5b6020830194508093505050509250925092565b634e487b7160e01b600052602160045260246000fd5b6001600160a01b038616815260ff8516602082015260a0810160028510611a2857611a286119e9565b6040820194909452911515606083015260809091015292915050565b600060208284031215611a5657600080fd5b813560048110611a6557600080fd5b9392505050565b80356001600160a01b0381168114611a8357600080fd5b919050565b600060208284031215611a9a57600080fd5b611a6582611a6c565b60008060408385031215611ab657600080fd5b82359150611ac660208401611a6c565b90509250929050565b634e487b7160e01b600052601160045260246000fd5b600081611af457611af4611acf565b506000190190565b81810381811115611b0f57611b0f611acf565b92915050565b634e487b7160e01b600052601260045260246000fd5b600060ff831680611b3e57611b3e611b15565b8060ff84160691505092915050565b80820180821115611b0f57611b0f611acf565b8082028115828204841417611b0f57611b0f611acf565b600060018201611b8957611b89611acf565b5060010190565b634e487b7160e01b600052603260045260246000fd5b8381526040602082015281604082015260007f07ffffffffffffffffffffffffffffffffffffffffffffffffffffffffffffff831115611be557600080fd5b8260051b8085606085013791909101606001949350505050565b600082611c0e57611c0e611b15565b500490565b600060ff831680611c2657611c26611b15565b8060ff84160491505092915050565b60ff8281168282160390811115611b0f57611b0f611acf565b60ff8181168382160190811115611b0f57611b0f611acf565b6040810160048410611c7b57611c7b6119e9565b92815260ff9190911660209091015290565b600181811c90821680611ca157607f821691505b602082108103611cc157634e487b7160e01b600052602260045260246000fd5b50919050565b60006020808352835160208401526020840151604084015261ffff6040850151166060840152606084015163ffffffff80821660808601528060808701511660a0860152505060a084015160c08085015280518060e086015260005b81811015611d405782810184015186820161010001528301611d23565b506101009250600083828701015282601f19601f830116860101935050505092915050565b600060208284031215611d7757600080fd5b5051919050565b600082611d8d57611d8d611b15565b500690565b600060ff821660ff8103611da857611da8611acf565b6001019291505056fea264697066735822122085b4a5a72314ad372370f0db19624b312b3148667a4179cd2ea766d63324887464736f6c63430008180033",
  "devdoc": {
    "details": "A contract, TreasureHunt where user can stake some ether to play game and win rewards.",
    "kind": "dev",
    "methods": {
      "constructor": {
        "details": "Constructor to initialize the contract with minimum turn duration and expiry duration.",
        "params": {
          "_gameDuration": "Duration till the game lasts",
          "_participationFee": "The amount required to participate and play game",
          "_requestConfirmation": "The number of block confirmations the VRF service will wait to respond.",
          "_s_subscriptionId": "SubscriptionId of VRF chainlink "
        }
      },
      "endCurrentGame()": {
        "details": "Expire the current game if game duration has elapsed. The function checks if the current game is still within the limits, it is reverted with an error. If the game has expired, it calculates the total value locked (TVL) for next game. Emits a {GameOver} event when the current game is successfully expired and a new game is started. Reverts with: - `GameNonExpirable` if the current time is less than the game's expiry time."
      },
      "makeMove(uint8)": {
        "details": "Allows an active player to make a move in the specified direction. The player must wait for their turn before making a move. This function calculates the player's new position based on provided direction. If the player lands on treasure's position, the game ends and funds are processed. Otherwise, player's position is updated If the new position is a prime number or a multiple of five, a request to generate random word is made. Emits a {PlayerRelocated} event when the player successfully moves to a new position.",
        "params": {
          "direction": "The direction in which the player wants to move. This should be one of the values from the `Directions` enum."
        }
      },
      "participate()": {
        "details": "Allows a user to participate in the current game by sending the required participation fee."
      },
      "withdrawFunds(uint256)": {
        "details": "Allows an active player to withdraw their participation fee from a specific game. Requirements: - The current game must be expired. - The caller must have a non-zero participation fee for the expired game.",
        "params": {
          "gameIndex": "The index of the game from which the player wishes to withdraw their funds. Emits a {WithdrawFunds} event when funds are successfully withdrawn."
        }
      }
    },
    "title": "TreasureHunt",
    "version": 1
  },
  "userdoc": {
    "errors": {
      "PlayerExists(address)": [
        {
          "notice": "Custom errors"
        }
      ]
    },
    "events": {
      "NewPlayerAdded(address,uint256)": {
        "notice": "Events"
      }
    },
    "kind": "user",
    "methods": {
      "acceptOwnership()": {
        "notice": "Allows an ownership transfer to be completed by the recipient."
      },
      "currentGameIndex()": {
        "notice": "Public variables"
      },
      "owner()": {
        "notice": "Get the current owner"
      },
      "participate()": {
        "notice": "The participant must send Ether to join the game.The participation fee must be equal to 'PARTICIPATION_FEE'.A player cannot participate in the same game more than once. Emits a {NewPlayerAdded} event when a new player joins the game."
      },
      "setCoordinator(address)": {
        "notice": "Sets the VRF Coordinator addressThis method should only be callable by the coordinator or contract owner"
      },
      "transferOwnership(address)": {
        "notice": "Allows an owner to begin transferring ownership to a new address."
      }
    },
    "version": 1
  },
  "storageLayout": {
    "storage": [
      {
        "astId": 29,
        "contract": "contracts/TreasureHunt.sol:TreasureHunt",
        "label": "s_owner",
        "offset": 0,
        "slot": "0",
        "type": "t_address"
      },
      {
        "astId": 31,
        "contract": "contracts/TreasureHunt.sol:TreasureHunt",
        "label": "s_pendingOwner",
        "offset": 0,
        "slot": "1",
        "type": "t_address"
      },
      {
        "astId": 231,
        "contract": "contracts/TreasureHunt.sol:TreasureHunt",
        "label": "s_vrfCoordinator",
        "offset": 0,
        "slot": "2",
        "type": "t_contract(IVRFCoordinatorV2Plus)380"
      },
      {
        "astId": 1984,
        "contract": "contracts/TreasureHunt.sol:TreasureHunt",
        "label": "extraArgs",
        "offset": 0,
        "slot": "3",
        "type": "t_bytes_storage"
      },
      {
        "astId": 1994,
        "contract": "contracts/TreasureHunt.sol:TreasureHunt",
        "label": "coordinatorId",
        "offset": 0,
        "slot": "4",
        "type": "t_address"
      },
      {
        "astId": 1996,
        "contract": "contracts/TreasureHunt.sol:TreasureHunt",
        "label": "s_subscriptionId",
        "offset": 0,
        "slot": "5",
        "type": "t_uint256"
      },
      {
        "astId": 1999,
        "contract": "contracts/TreasureHunt.sol:TreasureHunt",
        "label": "currentGameIndex",
        "offset": 0,
        "slot": "6",
        "type": "t_uint256"
      },
      {
        "astId": 2004,
        "contract": "contracts/TreasureHunt.sol:TreasureHunt",
        "label": "keyHash",
        "offset": 0,
        "slot": "7",
        "type": "t_bytes32"
      },
      {
        "astId": 2015,
        "contract": "contracts/TreasureHunt.sol:TreasureHunt",
        "label": "games",
        "offset": 0,
        "slot": "8",
        "type": "t_mapping(t_uint256,t_struct(GameData)1961_storage)"
      },
      {
        "astId": 2022,
        "contract": "contracts/TreasureHunt.sol:TreasureHunt",
        "label": "players",
        "offset": 0,
        "slot": "9",
        "type": "t_mapping(t_uint256,t_mapping(t_address,t_struct(PlayerData)1966_storage))"
      },
      {
        "astId": 2025,
        "contract": "contracts/TreasureHunt.sol:TreasureHunt",
        "label": "request",
        "offset": 0,
        "slot": "10",
        "type": "t_struct(RequestData)1978_storage"
      }
    ],
    "types": {
      "t_address": {
        "encoding": "inplace",
        "label": "address",
        "numberOfBytes": "20"
      },
      "t_bool": {
        "encoding": "inplace",
        "label": "bool",
        "numberOfBytes": "1"
      },
      "t_bytes32": {
        "encoding": "inplace",
        "label": "bytes32",
        "numberOfBytes": "32"
      },
      "t_bytes_storage": {
        "encoding": "bytes",
        "label": "bytes",
        "numberOfBytes": "32"
      },
      "t_contract(IVRFCoordinatorV2Plus)380": {
        "encoding": "inplace",
        "label": "contract IVRFCoordinatorV2Plus",
        "numberOfBytes": "20"
      },
      "t_enum(TreasureMovement)1948": {
        "encoding": "inplace",
        "label": "enum TreasureHunt.TreasureMovement",
        "numberOfBytes": "1"
      },
      "t_mapping(t_address,t_struct(PlayerData)1966_storage)": {
        "encoding": "mapping",
        "key": "t_address",
        "label": "mapping(address => struct TreasureHunt.PlayerData)",
        "numberOfBytes": "32",
        "value": "t_struct(PlayerData)1966_storage"
      },
      "t_mapping(t_uint256,t_mapping(t_address,t_struct(PlayerData)1966_storage))": {
        "encoding": "mapping",
        "key": "t_uint256",
        "label": "mapping(uint256 => mapping(address => struct TreasureHunt.PlayerData))",
        "numberOfBytes": "32",
        "value": "t_mapping(t_address,t_struct(PlayerData)1966_storage)"
      },
      "t_mapping(t_uint256,t_struct(GameData)1961_storage)": {
        "encoding": "mapping",
        "key": "t_uint256",
        "label": "mapping(uint256 => struct TreasureHunt.GameData)",
        "numberOfBytes": "32",
        "value": "t_struct(GameData)1961_storage"
      },
      "t_struct(GameData)1961_storage": {
        "encoding": "inplace",
        "label": "struct TreasureHunt.GameData",
        "members": [
          {
            "astId": 1950,
            "contract": "contracts/TreasureHunt.sol:TreasureHunt",
            "label": "treasurePosition",
            "offset": 0,
            "slot": "0",
            "type": "t_uint8"
          },
          {
            "astId": 1952,
            "contract": "contracts/TreasureHunt.sol:TreasureHunt",
            "label": "moveTreasure",
            "offset": 1,
            "slot": "0",
            "type": "t_bool"
          },
          {
            "astId": 1954,
            "contract": "contracts/TreasureHunt.sol:TreasureHunt",
            "label": "startTime",
            "offset": 2,
            "slot": "0",
            "type": "t_uint40"
          },
          {
            "astId": 1956,
            "contract": "contracts/TreasureHunt.sol:TreasureHunt",
            "label": "winner",
            "offset": 7,
            "slot": "0",
            "type": "t_address"
          },
          {
            "astId": 1958,
            "contract": "contracts/TreasureHunt.sol:TreasureHunt",
            "label": "totalValueLocked",
            "offset": 0,
            "slot": "1",
            "type": "t_uint256"
          },
          {
            "astId": 1960,
            "contract": "contracts/TreasureHunt.sol:TreasureHunt",
            "label": "playerCount",
            "offset": 0,
            "slot": "2",
            "type": "t_uint256"
          }
        ],
        "numberOfBytes": "96"
      },
      "t_struct(PlayerData)1966_storage": {
        "encoding": "inplace",
        "label": "struct TreasureHunt.PlayerData",
        "members": [
          {
            "astId": 1963,
            "contract": "contracts/TreasureHunt.sol:TreasureHunt",
            "label": "position",
            "offset": 0,
            "slot": "0",
            "type": "t_uint8"
          },
          {
            "astId": 1965,
            "contract": "contracts/TreasureHunt.sol:TreasureHunt",
            "label": "isActive",
            "offset": 1,
            "slot": "0",
            "type": "t_bool"
          }
        ],
        "numberOfBytes": "32"
      },
      "t_struct(RequestData)1978_storage": {
        "encoding": "inplace",
        "label": "struct TreasureHunt.RequestData",
        "members": [
          {
            "astId": 1968,
            "contract": "contracts/TreasureHunt.sol:TreasureHunt",
            "label": "player",
            "offset": 0,
            "slot": "0",
            "type": "t_address"
          },
          {
            "astId": 1970,
            "contract": "contracts/TreasureHunt.sol:TreasureHunt",
            "label": "newPosition",
            "offset": 20,
            "slot": "0",
            "type": "t_uint8"
          },
          {
            "astId": 1973,
            "contract": "contracts/TreasureHunt.sol:TreasureHunt",
            "label": "condition",
            "offset": 21,
            "slot": "0",
            "type": "t_enum(TreasureMovement)1948"
          },
          {
            "astId": 1975,
            "contract": "contracts/TreasureHunt.sol:TreasureHunt",
            "label": "newGame",
            "offset": 22,
            "slot": "0",
            "type": "t_bool"
          },
          {
            "astId": 1977,
            "contract": "contracts/TreasureHunt.sol:TreasureHunt",
            "label": "requestId",
            "offset": 0,
            "slot": "1",
            "type": "t_uint256"
          }
        ],
        "numberOfBytes": "64"
      },
      "t_uint256": {
        "encoding": "inplace",
        "label": "uint256",
        "numberOfBytes": "32"
      },
      "t_uint40": {
        "encoding": "inplace",
        "label": "uint40",
        "numberOfBytes": "5"
      },
      "t_uint8": {
        "encoding": "inplace",
        "label": "uint8",
        "numberOfBytes": "1"
      }
    }
  }
}